S0180000476363426F61726450726F6A656374312E737265630F
S113000048230020B92B0000B52B0000B52B0000BD
S113001000000000000000000000000000000000DC
S1130020000000000000000000000000B52B0000EC
S11300300000000000000000B52B0000B52B0000FC
S1130040B52B0000B52B0000B52B0000B52B00002C
S1130050B52B0000B52B0000B52B0000B52B00001C
S1130060B52B0000A51F0000B51F0000C51F000030
S1130070D51F0000E51F0000F51F0000B52B000090
S1130080B52B0000B52B0000E9280000F92800007A
S1130090092900001929000029290000B52B0000B6
S11300A0B52B0000B52B0000B52B0000B52B0000CC
S11300B00000000010B5064C2378002B07D1054B37
S11300C0002B02D0044800E000BF0123237010BDC0
S11300D068000020000000005C530000084B10B5CD
S11300E0002B03D00749084800E000BF0748036815
S11300F0002B00D110BD064B002BFBD09847F9E72D
S1130100000000006C0000205C5300005C53000001
S11301100000000001680722CB691A42FCD1704735
S1130120F0B5D6464F464646C0B58AB006000F0025
S1130130140031600800974B9847974A116A851C50
S11301400123AB400B43136209A9237B0B701430CA
S1130150C5B22800914B98472800914B9847207BC3
S11301600021904B98473B681C209B0705D50AB09B
S11301701CBC90469946A246F0BD3B681738DB0785
S1130180F5D414233B60336898461800814B984794
S11301900500802308AA137000235370012208A9C4
S11301A08A70CB70E069276A002800D1AFE008AB01
S11301B01870022308AA5370000CC0B211007A4BC5
S11301C09847002F00D1A7E008AB1F70022308AAAC
S11301D053703F0CF8B21100734B9847A38AF38015
S11301E0E38A3381237E8022002B04D16F4B9B78DA
S11301F09B07DB0FDA01A16823690B431343242215
S1130200A25C002A02D08022D2051343A26A1343BF
S11302102C22A25C002A03D180229204914202D1B2
S11302208022120513432D22A25C002A02D08022D0
S1130230120413432E22A25C002A02D08022D2038D
S113024013434246126813434246136080235B0003
S1130250536028001430C0B2554B98470790FA23D6
S11302609B0022685A43914663689A46514DA847B9
S1130270009001914B465800A84702900391208EAC
S1130280A847049005914C4F4C4A4D4B0098019956
S1130290B84702000B0004980599B847494E00225C
S11302A0494BB047049005914846A84702000B000B
S11302B004980599B84702000B00444D0098019931
S11302C0A847029A039BB0470022414BA847029AD1
S11302D0039B404DA847404B9847050080239B044F
S11302E0A2689A421ED003004020FF2D00D93EE7A9
S11302F000240020FF251D40240625430004FF237D
S11303001B04184005434346DD6000202FE700210D
S11303104046324B98474AE7012140462F4B9847C5
S1130320070051E7FA26B60053465E430098019948
S113033002000B00234CA0470090019130001D4B9C
S113034098470022264BB84702000B0000980199F9
S1130350204CA04700221E4B1C4CA0471E4B984724
S1130360041E0CD0310007981E4B98470238001B1E
S11303702B00FF2D0CD8FF28BCD94020F7E67100D4
S1130380481E079B9C466044164B98470138EFE78C
S11303904020ECE64119000000040040F92600006A
S11303A06D2600007D170000F127000000200041A9
S11303B015270000A14800000D3D000095D626E851
S11303C00B2E113E85300000000024400D42000039
S11303D00000F03FA536000039480000C9170000AE
S11303E000000840192F000003681A7E920707D501
S11303F002221A765B8B9B074120DB17184070475B
S11304005A8B520706D55968C02292020A435A6091
S11304101820F4E70020F2E730B502680023012435
S11304200225117E21420BD1117E294206D10133CE
S11304309BB201899942F4D8122002E0002000E026
S1130440002030BD10B5046862688023DB021343CA
S113045063606162024B98470123237610BDC04656
S113046019040000F0B5DE4657464E464546E0B551
S113047083B00600894605684C882B681B01DB0F96
S11304809A464B7A002B2BD16B68584A13406B6009
S11304904B461B7A002B27D14B461B885B004A46F0
S11304A0527A92031343012213436B623000504B80
S11304B0984701905346002B03D04B465B88012B91
S11304C03BD06B68494A13406B60019B002B3AD0C8
S11304D0019803B03CBC90469946A246AB46F0BD99
S11304E0897A444B9847CFE74B461B885B004A46C2
S11304F0527A920313438022120213436B62300038
S11305003B4B984701906B68384A13406B60002856
S1130510DED13000384B984701900028D8D14B46A3
S11305201B881B0A782213435B004A46527A9203C3
S113053001210A4313436B62B8E76A688023DB0234
S113054013436B60C1E730002B4B984701900028A0
S1130550BED1013CA4B28046284B9B4615E0012C39
S113056020D03000264B984743465F1CBFB2282357
S1130570EB5C4A4652684146535430001C4B984742
S1130580013CA4B2002815D1B8465C4514D06B8B4D
S11305909B0627D5F37A002BE3D05346002BDED1FC
S11305A0002CDED16A688023DB0213436B60013CBC
S11305B0A4B2EAE7B8460190B37A002B09D130001F
S11305C00F4B98472823EA5C4B465B6841465A54D4
S11305D07EE730000A4B98476A68C0239B021343A6
S11305E06B60ECE74123019372E7C046FFFFFBFF1A
S11305F01904000045040000E9030000FFFF0000A7
S113060015010000F0B5DE4657464E464546E0B5B6
S113061083B006000F0005684C88324B98477B7AFC
S1130620002B1DD16B68304A13406B603B7A002B62
S11306301BD03B885B007A7A920313438022120218
S113064013436B623000294B98470190002813D064
S1130650019803B03CBC90469946A246AB46F0BD17
S1130660B97A3000224B9847DCE73B885B007A7A02
S1130670920313436B62E5E730001E4B9847031E59
S11306800190E5D1A046002420339946154B9B46A2
S1130690164B9A46444515D06B8B4A4613421DD0DF
S11306A03000D8477B681A5D2823EA543000D047CD
S11306B0002806D16B8B01345B07EBD51E23019315
S11306C000E00190B37A002BC2D03000054B98476C
S11306D06A68C0239B0213436B60B9E7412301930B
S11306E0B6E7C04615010000FFFFFBFF1904000038
S11306F045040000E903000010B501238372C372AE
S1130700014B984710BDC0466504000010B5012395
S11307108372C372014B984710BDC04605060000A2
S113072010B58CB004AB140A1C705A7002290CD991
S1130730030012226A44CC1EE4B2013400191C786E
S11307401470013301328342F9D101A8502303808C
S11307500231418004AB436000230372437283720D
S1130760014B98470CB010BD390B000010B586B092
S1130770040004AB0A0A1A70597001A850220280BE
S11307804E3A428043600023037243728372094BE2
S1130790984700280AD101A8446020234380064BCF
S11307A09847431E9841404206B010BD0120404284
S11307B0FAE7C046390B0000650B000010B586B09F
S11307C0040004AB0A0A1A70597001A8502202806E
S11307D04E3A428043600023037243728372094B92
S11307E0984700280AD101A8446001234380064B9E
S11307F09847431E9841404206B010BD0120404234
S1130800FAE7C046390B0000650B000000B587B05D
S113081004AB0A0A1A705970987001A85022028019
S11308204D3A428043600023037243728372034B48
S11308309847431E9841404207B000BD390B000061
S113084070B588B0050006AA0023137001AC6821B6
S1130850218067396180029223726372A37220003F
S1130860204B984704AB63600823638020001E4B31
S11308709847002833D104AA1479230999005B18F6
S11308805B000F210C401B19EB709478A3069B0F9F
S11308909E009B195B000C401B192B705478230994
S11308A09E009B195B000C401B196B705479230943
S11308B09E009B195B000C401B192B711478630676
S11308C05B0F9E009B195B000C401B19AB70927967
S11308D013099C001B195B0011405918697108B079
S11308E070BDC046390B0000650B000000B587B031
S11308F001AA00231370537003A86821018066398C
S113090041804260037243728372024B984707B07E
S113091000BDC046390B000010B5E02802D0E12824
S113092018D010BD0022104B1A60E0320F4B1A7021
S11309300F4B1B68002B08D00E4B19680E480F4B49
S1130940984700220A4B1A60EBE7012107480B4B3A
S11309509847E6E70122044B1A600448E023037039
S11309600121064B9847DCE7B4000020B0000020CA
S1130970B8000020AC0000208400002051120000C8
S1130980014B18687047C046B400002010B5114BE5
S11309901B68002B14D1104B1B68002B13D1272983
S11309A014D8002905D00D4CC25C1A550133994264
S11309B0FAD10122074B1A60094B1960002010BDBF
S11309C002204042FBE702204042F8E70120404277
S11309D0F5E7C046B8000020B400002084000020E1
S11309E0AC00002010B50023044A1360044A1360CD
S11309F0044A13600448054B984710BDB400002016
S1130A00B8000020AC00002019090000C512000045
S1130A100A4B195CCA090023002A04D14B09DB01E3
S1130A20074A94466344186A1F220A4001239340EC
S1130A301840431E9841C0B27047C046D8510000C8
S1130A4000440041F0B583B001AC002626700127B4
S1130A506770A67021002620104DA847210027208A
S1130A60A84721001420A84721001520A847267074
S1130A70667021000420A8472770667021000620B4
S1130A80A8472770667021000720A8472770667062
S1130A9021000520A84703B0F0BDC046AD200000EA
S1130AA010B58EB001AA642301931C4B536000233C
S1130AB093601373137680218903116101214942E4
S1130AC09182253153549362083153540131535464
S1130AD001315354D7331386114BD382114BD36155
S1130AE0114B1362114C12492000124B9847226893
S1130AF00721D3691942FCD1136802210B43136007
S1130B000A4BDC8800231020518B014204D10133AD
S1130B10A342F9D3102353830EB010BD480D000037
S1130B20102700000300080003000900BC00002097
S1130B300010004221010000F8B50600064C074DE4
S1130B40074F31002800B847002804D0013C002C8E
S1130B50F7D101204042F8BD11270000BC0000205D
S1130B600D070000F8B50600064C074D074F31008D
S1130B702800B847002804D0013C002CF7D10120FC
S1130B804042F8BD11270000BC000020F906000017
S1130B90014B18607047C04600010020F8B5CE46EE
S1130BA0474680B5144E0023337001333373013349
S1130BB0337603222233F25434003036A0460F4FEA
S1130BC00F4B9946002565603A6853009B189B00BB
S1130BD04246985CC847A070E07065703A6853005C
S1130BE09B189B0043449D600C34B442EAD10CBC76
S1130BF090469946F8BDC046CC000020C8000020AD
S1130C00110A000010B5064B1B78834203D0044B35
S1130C101870002800D010BD024B9847FBE7C0466F
S1130C20FC0000209D0B0000F0B5DE464F46464612
S1130C30C0B5494B1B78002B04D11CBC9046994687
S1130C40A346F0BD0022454B1A600024444E23E025
S1130C50434D67003B199B00585D424B98473C1934
S1130C60A4002C19A0703D4B1A6853009B189B00DC
S1130C70EB189978DB78994208D0394853009918D1
S1130C808900411801244C7000224A60334B1A68D1
S1130C90541C1C60032CD0D863001B199B00F31850
S1130CA05B78012B1BD0002BD2D0022B33D0FF2337
S1130CB023409B462A4B99465B465B001F005F44DA
S1130CC0BF004F4400257D6063001C19A4004B46FF
S1130CD0E05C244B9847B870F8707D70D6E76300E9
S1130CE01B199B001E4A944663445B680133042B22
S1130CF006D062001419A400624614196360C5E7A3
S1130D0063001A19920016498C466244002151600E
S1130D1002235370BAE7124D67003B199B00585DDC
S1130D20104B98473C19A4002C19A0700B4B1A685F
S1130D3053009B189B00EB189978D97000205870C9
S1130D40094B1C68002CA1D053009A189200044B44
S1130D50D05CA0479AE7C046FC000020C8000020F1
S1130D60CC000020110A000000010020F0B583B07F
S1130D7000226B46DA7100246B46DD1D084E802785
S1130D807F0121002800B0472B78232B04D1203485
S1130D90A4B2BC42F5D10024200003B0F0BDC0468B
S1130DA0BD070000F8B504000E001D291CD8104B27
S1130DB09847020023210F4B19703700012E11D9D7
S1130DC021001D000133AD190C781C700131013371
S1130DD0AB42F9D107482523C3550236F1B2064B7D
S1130DE09847F8BD0127F5E701204042F9E7C046DE
S1130DF06D0D00000801002021070000F0B58DB042
S1130E000190002202ABDA71002402ABDE1D1A4FFE
S1130E1080256D0121003000B8473378232B08D09A
S1130E202034A4B2AC42F5D10022144B1A80002421
S1130E3005E0124B1C80FE231B019C4218D82100A4
S1130E4004A80F4B9847002810D1092302AA9446FE
S1130E506344019D0CA91A782A70013301358B4231
S1130E60F9D1064B1988FF20064B98470DB0F0BD09
S1130E7001204042FAE7C046BD07000004010020FB
S1130E806D0700000D080000F0B583B00D4B9847C6
S1130E9000226B46DA71802400256B46DE1D0A4F62
S1130EA002E0013C002C08D029003000B847337818
S1130EB0232BF6D12035ADB2F3E70022034B1A8081
S1130EC003B0F0BD6D0D0000BD070000040100205B
S1130ED030B587B0194C1A4BE38006206071142397
S1130EE02371013BA3700B3363701D33237001AA7C
S1130EF0A0231B01138000239370D370FA21C9002F
S1130F00D180012111710425157253729372D37229
S1130F10117351730B4BD38110740B4D0B49280083
S1130F200B4B984728000B4B9847210028000A4B8D
S1130F3098472800094B984707B030BD300100207E
S1130F40E3070000E407000028010020001400402B
S1130F502D140000D11200009D130000E9140000BC
S1130F600B4B581CFF3004E0013A5A6010338342A3
S1130F700DD01A68002AF9D05A68002AF4D11A7BD5
S1130F8001321A739A68002AF0D05A60EEE770476B
S1130F90BC01002010B58EB001AA0021002391806D
S1130FA09371118153709372D37213739373537348
S1130FB013745161916113771162516211859185A6
S1130FC004239370033B137020312833D1544431EC
S1130FD00133D1542E390133D154084C084920002F
S1130FE0084B98472268D37B5BB2002BFBDB13884A
S1130FF002210B4313800EB010BDC046C002002076
S1131000002C00427529000010B50C4C00220C493C
S113101020000C4B984720680B4B98470B4B1A5CED
S11310201F231340012211009940094B1960637E6C
S113103001210B43637623685A7310BDC00200205C
S1131040610F00005128000039290000DC51000024
S113105000E100E0F0B506000D4B1B68002B14D036
S113106001230B4FD8B21D0001331C01103C3C5925
S1131070002CF7D1102807D0054B2D01EE505D1937
S11310806960AA6000232B73F0BD00250020F3E7FC
S1131090BC01002002010B4BD358002B0DD00022C1
S11310A0094B1A70074B00010022C2501818426005
S11310B082600273044B187870470122024B1A7045
S11310C0F0E7C046BC0100203801002070B50C4D8B
S11310D0002407E020000B4B98470134E4B210359C
S11310E0102C0BD02B7B002BF7D02B6898472B7B35
S11310F0013B2B73AB68002BEFD1EBE770BDC0460F
S1131100BC01002095100000054B591CFF31002242
S11311105A609A601A601A7310338B42F8D1704780
S1131120BC01002010B5024B9847024B984710BDF4
S1131130950F00000910000010B5044B1B68002B2C
S113114003D0034A1078C0B2984710BD3C01002078
S1131150DC0200200022014B1A7070473901002084
S1131160F0B591B08024E405009400240194012595
S113117024266F46BD550136BD5500250136BC55A4
S11311800136BC550A940536BC550136BC55059448
S11311903C82FC763D763D777D761324BC767D7764
S11311A00890FB723981BA7280235B0303931C4B52
S11311B00C931C4B0D9301235B420E930F931A4D1A
S11311C01A4C6A461A492800A0470028F9D1164D3E
S11311D02C682000174B98471F2318401E3B834060
S11311E0154A13602A68D369002BFCD123680222B4
S11311F0134323600C4C002210492000104DA847D3
S1131200012210492000A8473122A35C03210B438B
S1131210A35400230C4A13700C4A136011B0F0BDA0
S113122002002C0002002D0040010020791900006A
S113123000180042751F000000E100E05511000095
S1131240491D000039110000390100203C01002033
S113125010B5114B1B78002B14D1272915D8002960
S113126005D00E4AC45CD45401339942FAD18AB2EF
S11312700A490B480B4B9847002809D10122064B19
S11312801A7010BD01204042FBE701204042F8E7FC
S113129001204042F5E7C04639010020E002002069
S11312A040010020611D000010B5012202490348DD
S11312B0034B984710BDC046DC02002040010020CB
S11312C0811D0000014B18607047C0463C0100209E
S11312D00268937A5BB2002BFBDB138802210B4379
S11312E0138070470268937A5BB2002BFBDBC12347
S11312F093711372138802218B431380704700008B
S113130070B504000568064B98472268937A5BB26F
S1131310002BFBDB2B88012213432B8070BDC046BE
S1131320E512000010B5CB88C2889A1A92064B7950
S11313309B050C79640423438C78240323431343CF
S11313400279002A05D1CA78002A02D080225202EA
S11313501343487880010A781043184310BD10B530
S11313608B0EC4881B19D3808B011B0F53718B0206
S1131370DB0E13710379002B0CD10B041B0F93703C
S1131380CB03DB0FD37088093F23184050701940FA
S1131390117010BDCB03DB0E9370F4E710B5046835
S11313A0034B9847A37A5BB2002BFBDB206110BD93
S11313B02513000010B50A0003684179002906D0FE
S11313C0598849040BD519690A4B984710BD0A4935
S11313D059800468A17A49B20029FBDBF3E75988F4
S11313E0C0242402214359800468A17A49B2002907
S11313F0FBDBE8E75F1300000080FFFF70B50D0022
S113140014001723012A01D9180070BD0668064B81
S11314109847B37A5BB2002BFBDBE4003419A0617C
S11314202B7A23770023EFE72513000030B583B030
S11314300500140001601C4A936920210B43936149
S113144001A902230B700420184B98470420184B61
S113145098472800174B984723792B71E3786B71D1
S1131460E388EB80144B1D602A68238821790029C6
S113147017D008210B43A178002901D080210B4308
S11314801380E378002B04D053888021C9010B43D7
S113149053802100083100222800084B984703B0EC
S11314A030BD48210B43E6E700040040F926000064
S11314B06D2600000113000008030020FD13000046
S11314C070B50C001723012A01D9180070BDD20091
S11314D003689D18A9692200024B98472B7F237249
S11314E00023F2E75F13000070B586B004000668BD
S11314F004A93D4B98472379002B42D004AA907845
S11315000B2383429B415B42D3700C21374B98479A
S1131510C9B2002916D004AB997001AD002229008C
S11315202000334B9847A8780B2383429B415B42AE
S1131530EB700C212D4B9847C9B2002906D001ABA2
S1131540997006E00C2204AB9A70E6E70C2201AB1A
S11315509A7000252571002201A92000254B984787
S113156025712000244B9847338840225340338010
S11315702000224B984704A92000214B984706B02D
S113158070BD04ABDB78002B15D004AB9A780C3219
S11315909A700022DA7001AD002229002000144B59
S11315A09847EB78002B0ED101AB9B780C2B17D00E
S11315B001232371D5E704AB9B780C2BEBD10022DC
S11315C004AB9A70E7E701A98B780C338B70002386
S11315D0CB700133237100222000064B9847E7E7C4
S11315E0002201AB9A70E3E7B51300002530000038
S11315F0C1140000FD130000E5120000D112000028
S11316009D130000F0B5DE4657464E464546E0B50C
S113161087B08046049116001F0000220023002199
S11316208B463F2401202100009601975C460394D9
S11316304446059413E02024641A0500E540A846B6
S113164014E0009C019D121BAB415C464D462C43AB
S1131650A346039C45462C430394013925D32024F7
S113166064420C19E7D40500A540A84604008C4048
S1131670A14692185B4114001D00059E4F463E4052
S1131680B446049E47463E40B246664657463E43ED
S113169003D00600264332002B00009C019D9D428E
S11316A0DBD8CED19442D8D8CBE7039B5846190057
S11316B007B03CBC90469946A246AB46F0BD10B577
S11316C0490840230024814202D2180010BD1C00A6
S11316D0091A631C9BB28842F9D94023FF2CF4D821
S11316E014800023F1E70000F0B583B00F0016006A
S11316F008AA117804004C434022BC4202D91000CD
S113170003B0F0BD002B14D1020008000021194CD5
S1131710A04701003A0000230020174CA0470022F4
S11317200123121A8B41120C1B041A43328000222B
S1131730E5E70022012BF9D10A00002300210D4C1A
S1131740A04702000B0000920193380000210A4CCC
S1131750A047050080239B0140229842CFD8790FEF
S1131760F800009A019BA047EA00821AD2B2520301
S11317702A43DBE7313000000516000010B582B0C3
S113178004000E4B1B78002B07D0002905D10B4B0E
S11317905B78834210D01D200CE001A90C7013204B
S11317A0074B98471320074B9847044B5C70012262
S11317B01A70002002B010BD0020FBE77401002065
S11317C0F92600006D260000404B984231D00AD91A
S11317D03F4B98424DD03F4B98425AD03E4B984293
S11317E037D0002070473D4B98420CD03C4B984278
S11317F0F7D1012917D000295DD0022915D003297A
S113180015D00020EEE7012907D0002951D0022984
S113181005D0032905D00020E4E73248E2E7324846
S1131820E0E73248DEE73248DCE73248DAE73248BC
S1131830D8E7012907D000293FD0022905D0032980
S113184005D00020CEE72D48CCE72D48CAE72D4827
S1131850C8E7012907D0002931D0022905D003297E
S113186005D00020BEE72848BCE72848BAE7284846
S1131870B8E7012907D0002923D0022905D003297C
S113188005D00020AEE72348ACE72348AAE7234865
S1131890A8E7012907D0002915D0022905D003297A
S11318A005D000209EE71E489CE71E489AE71E4884
S11318B098E71E4896E7032094E71D4892E71D48E1
S11318C090E71D488EE71D488CE7C0460010004293
S11318D000180042001C00420014004200080042AC
S11318E0000C00420300050003000600030007008B
S11318F00300010003001E0003001F000300090091
S113190003000A0003000B0003001100030012008F
S11319100300130003000D0003000E0003000F007A
S1131920030017000300180003001900030004005B
S1131930030008000300100003000C00030016005D
S113194030B587B00B4B6A4632CB32C232CB32C28F
S1131950009B83420BD001239A006946525882426D
S113196006D00133062BF7D1002007B030BD002389
S1131970D8B2FAE7E4510000F0B5DE4657464E46C9
S11319804546E0B591B005000C001600296008003A
S1131990BC4B9847020023680520DB0706D511B02D
S11319A03CBC90469946A246AB46F0BD236817302E
S11319B09B07F4D4B449086A971C0123BB40034332
S11319C00B620FA92D27F35D0B701432D3B202936F
S11319D01800AE4B98470298AD4B9847F05D002134
S11319E0AC4B9847F37A6B712423F35CAB712523DA
S11319F0F35CEB71F37E2B72337F6B722B6898462A
S1131A001800A04B9847143000220E2306A98C46D8
S1131A1063441A80328A02928023DB019A4200D105
S1131A209EE00FD9C023DB01029A9A4200D192E0D2
S1131A3080231B029A4200D01FE103230693002354
S1131A40079308E080239B019A4200D015E11023FC
S1131A5006930F3B079333680593F3680393736905
S1131A600493337E9B462623F35C9A467368994617
S1131A70002B00D1A0E080235B05994500D184E0D0
S1131A80737E002B02D0B37E424693732A68029F72
S1131A90D369002BFCD10E3306AA944663441B88F9
S1131AA042469381059B039A1343049A13434A467F
S1131AB013431F435B461B021F4353465B071F43ED
S1131AC02723F35C002B01D104331F43737E9B0255
S1131AD0327F52021343727F120213432422B25CF8
S1131AE0520413432522B25C12041343B17AF27AEE
S1131AF0114319433389FF2B00D181E08022520422
S1131B00174319432C23F35C002B03D1624B9B78BE
S1131B109B0701D580231F432A68D369002BFCD17E
S1131B20434659602A68D369002BFCD143461F60A1
S1131B300EAB80221A7000225A70DA709A70336BDE
S1131B400A93736B0B93B36B0C93F36B02930D9328
S1131B5000270AAE63E008230693073B07937AE75E
S1131B6033680593F368039373690493337E9B4648
S1131B702623F35C9A4673689946002B18D0802379
S1131B805B05994501D0002025E02723F35C002B59
S1131B9000D075E7336A1F00C0B2404B984701007C
S1131BA00E2206AB9C46624438003D4B984712E037
S1131BB008230693002307932723F35C002B0ED0FE
S1131BC0069B0093079B0E2206A98C466244B16AC9
S1131BD0306A344FB847002800D0E0E650E7336A53
S1131BE01F00C0B22D4B98470100069B0093079B32
S1131BF00E2206A88446624438002A4FB847EAE712
S1131C00F37E002B00D17DE78023DB041F4379E7BB
S1131C102000254B984707E00137042F0DD0F9B277
S1131C20BB0098590028F3D0431CF5D00EA90870C6
S1131C30000CC0B21D4B9847EEE70023EB602B610C
S1131C406B61AB61EB612B62AB626B620022EB8573
S1131C50AB853033EA540133EA540133EA54013397
S1131C60EA542868074B984704001149114B9847D8
S1131C70A400114BE550002091E6102306930023A5
S1131C800793E8E64119000000040040F92600002B
S1131C906D2600007D17000000200041152700007C
S1131CA0BF160000E9160000C9170000F127000064
S1131CB0A11D0000391F00000C030020F8B5060028
S1131CC00C00150007680A4B9847F38D9BB2002B54
S1131CD003D0084B98470520F8BDF585054B984778
S1131CE0B46205223323F254323BBB750020F3E780
S1131CF00520000045200000F8B504000D00160082
S1131D0007680F4B9847A38D9BB2002B03D00D4B54
S1131D1098470520F8BDA6850A4B984765620522B9
S1131D203223E2542E3BBB75237A002B01D02023AF
S1131D30BB75637A0020002BECD00823BB75E9E760
S1131D400520000045200000931C9B00C318596027
S1131D503021012393401A00435C134343547047DA
S1131D6010B51723002A01D1180010BDC47905331A
S1131D70002CF9D0014B98470300F5E7BD1C000087
S1131D8010B51723002A01D1180010BD847905333A
S1131D90002CF9D0014B98470300F5E7F91C00002B
S1131DA0F8B58000624BC5582C68E369002BFCD160
S1131DB0237EA67D1E403023EB5C3122AF5C1F40A6
S1131DC0F30722D5EB8D9BB2002B1CD0AA6A1378A3
S1131DD0DBB2511CA962697901290ED09BB2DB05E3
S1131DE0DB0D2385EB8D013B9BB2EB85002B0CD1E6
S1131DF0013323750133A37507E0517809020B43BE
S1131E000232AA62EBE701232375B30706D5022346
S1131E10237500223133EA54FB071AD4730765D5BE
S1131E20AB8D9BB2002B5FD0638BDBB21A0714D44B
S1131E303F221340002B34D09A0711D51A223223A3
S1131E40EA54303B63837B0750D528006B6998477D
S1131E504CE02800EB689847E0E737221340E9E7B5
S1131E605A0705D51E223223EA542E3B6383EAE740
S1131E70DA0705D513223223EA54313B6383E2E7C0
S1131E80DA0605D542223223EA54223B6383DAE799
S1131E9020221A42D7D021323223EA54123B6383E0
S1131EA0D1E7238DDB05DB0DDAB2696A0A706A6A51
S1131EB0511C69626979012910D0AB8D013B9BB239
S1131EC0AB85002B12D10433237500222E33EA5440
S1131ED0BB070BD528002B69984707E01B0A5370F2
S1131EE06B6A01336B62E8E704232375F30604D5B8
S1131EF0102323752376FB060ED4B30604D52023C2
S1131F00237523763B070BD4330704D508232375A5
S1131F102376BB0608D4F8BD2800EB699847ECE7A4
S1131F202800AB699847EFE72B6A28009847F2E747
S1131F300C03002070470000F0B50A4B1B78002BFF
S1131F400CD1094F094E0A4D0024DE515A19146070
S1131F500433182BF9D10122024B1A708000024B72
S1131F60C150F0BD7601002078010020351F00002B
S1131F700C03002000B583B009236A4613700133B3
S1131F805370013393700133D370013313710133F0
S1131F905371034B98476B46185603B000BDC046B7
S1131FA04119000010B5024B1B680020984710BD72
S1131FB07801002010B5024B5B680120984710BDE2
S1131FC07801002010B5024B9B680220984710BD91
S1131FD07801002010B5024BDB680320984710BD40
S1131FE07801002010B5024B1B690420984710BDEE
S1131FF07801002010B5024B5B690520984710BD9D
S1132000780100200C4B1B68002B06D1EFF31083E2
S1132010002B07D00022094B1A70074A13680133BA
S11320201360704772B6BFF35F8F0022044B1A70BF
S11320300132024B1A70F0E7900100209401002055
S113204000000020084B1A68013A1A601B68002B34
S113205009D1064B1B78002B05D00122044B1A70C2
S1132060BFF35F8F62B67047900100209401002097
S113207000000020F0B583B001AC01256570002795
S1132080A770257021003E20064EB0478022D2055D
S1132090054B9A612770657021000F20B04703B08B
S11320A0F0BDC046AD2000008044004100B583B0BF
S11320B001AB80221A700A785A704A789A708A782A
S11320C0DA701900014B984703B000BDF1270000F6
S11320D010B5082803D880001C4B1B589F460020CD
S11320E032E01B4B18692FE01A4B1B6A9B059B0FB0
S11320F01948D84028E0164B586925E0144B1B6852
S113210000209B0720D513491022CB681A42FCD02B
S11321100F4B1A6824231340042B01D00F4813E0FB
S113212000200F4B98470A4B9B681B041B0C584319
S11321300AE05023074AD35C00205B0704D5044B14
S1132140D86801E08020000210BDC046FC510000A8
S1132150980100200008004000127A00006CDC02A4
S11321601527000070B50C490B6A0478857840780F
S11321700122104080014026B34303432A40D20188
S11321808020834313430322224012020348034066
S113219013430B6270BDC04600080040FFFCFFFF04
S11321A0F0B5CE46474680B5194B99469B694178B0
S11321B08C4605780679C7784479807801210840EF
S11321C0800004229343034360460840C000043265
S11321D0934303433800084080014027BB43034333
S11321E030000840C0018026B34303430720054064
S11321F02D02084803402B432140090306480340AD
S11322000B434A4693610CBC90469946F0BDC046C8
S113221000080040FFF8FFFFFFEFFFFFF0B5DE46C8
S113222057464E464546E0B50100264B9B469B8AE1
S1132230457800784242424191468878CA7894466B
S11322400A7990464E7B0F7B8C7B8A681E494A61D3
S113225001214A4692009146042293434A4613437D
S113226042460A40D2009046082293434246134312
S113227062460A4012019446102293436246134375
S1132280084040012022934303430F40BF014020F4
S113229083433B430E40F601403083433343793854
S11322A005402D02094803402B43214009030848F7
S11322B003400B435A4693823CBC90469946A2463F
S11322C0AB46F0BD0008004098010020FFF8FFFF76
S11322D0FFEFFFFF082803D88000254B1B589F46BB
S11322E0172044E0234A136A02210B43136200209F
S11322F03DE0204A936902210B439361002036E0BC
S11323001C4A138A02210B43138200202FE0194A2E
S1132310938A02210B439382002028E016490B681C
S1132320022213430B60134B9A8419000E32CB68BC
S11323301A42FCD0104A91680E4BD96252689A62D4
S113234000229A8419001032CB681A42FCD00A4B3E
S11323501B689BB2074A9384002008E00549442285
S11323608B5C022003438B54002000E00020704764
S1132370205200000008004098010020F0B58BB006
S1132380C222D200414B9A60414A53681E218B43BA
S1132390536003236A46137000243E4DE0B269463D
S11323A0A8470134252CF9D106A8002303708370B3
S11323B0802212028260C37001220271037383734C
S11323C0053242704373344B98470520334B98478A
S11323D02E490222CB681A42FCD02C498B8A8022D7
S11323E013438B822E4B1B68DB048A695B0E1B0430
S11323F02C48024013438B6104A801254570857065
S11324000024C4700571072303704471264B984758
S11324100420224EB04703A8447085700470234BF7
S113242098470620B047224B984701956B465C704D
S11324301C725C7205236A461370694601201D4FA5
S1132440B84701201C4EB0476B465C701C725C722E
S113245004236A4613701C33019369460220B8476B
S11324600220B047154B1C725C729C72DC720195A1
S11324706B465C7006236A46137014725472694684
S11324800020B8470020B0470BB0F0BD0008004062
S113249000400041F92600001D220000D522000062
S11324A024608000FFFF80FFA1210000652100005F
S11324B0C1240000E52400009D2500000004004024
S11324C0064A936908210B4393610122044B1A7055
S11324D019000B781342FCD17047C0460004004039
S11324E0000C004070B5060004000D782D02054371
S11324F04B78002B02D08023DB021D434B7A002B48
S113250002D080231B031D434868012810D9431EB1
S1132510184234D1022830D90223002201325B0050
S11325209842FBD812023243140080235B031D43FC
S11325300B7A002B02D080239B031D43134A53784C
S11325405BB2002BFBDB124B9847124B1E700F4AF9
S113255053785BB2002BFBDB0C4B9C601A00537866
S11325605BB2002BFBDB094A5368802149020B4014
S11325701D435560084B984770BD0022D2E7040202
S1132580344380239B021D43D2E7C046000C004025
S113259005200000080C00404520000010B5040090
S11325A00B4A53785BB2002BFBDB0A4B98470A4B70
S11325B01C70074A53785BB2002BFBDB044A51685A
S11325C080235B020B435360044B984710BDC04605
S11325D0000C004005200000040C004045200000D1
S11325E070B504001A4A53785BB2002BFBDB194B1D
S11325F09847194B1C70164A53785BB2002BFBDBCF
S1132600134E7068C004C00E144B98470500124B5B
S11326101C707668F602F60F114B1C700C4A537846
S11326205BB2002BFBDB0A4B9C682402240C0D4B91
S11326309847002E07D1012C07D9210028000A4B06
S11326409847050001E00134E540280070BDC0460C
S1132650000C004005200000040C0040D1200000C4
S1132660080C004045200000192F000010B504009C
S1132670064B9847064B1C70064A53888021C901B3
S11326800B435380044B984710BDC04605200000FF
S1132690020C0040000C00404520000010B504006E
S11326A00F4B98470F4B1C700F4A53881B05180F8C
S11326B053880E490B40538053880D490B40538077
S11326C011008022D2014B881342FCD106494A886A
S11326D003020648024013434B80064B984710BD43
S11326E005200000020C0040000C0040FFF0FFFF3A
S11326F0FFBFFFFF4520000010B50C7824020443FF
S1132700024B9847A4B2024B5C8010BD9D2600008A
S1132710000C004010B50400064B9847064B1C7093
S1132720064B5C882405240F054B98472000054B75
S1132730984710BD05200000020C0040000C00402A
S113274045200000E125000030B5D378002B35D1B9
S11327501378802B29D01B068024640223435478E9
S11327600225AC4306D19478002C20D18024A40205
S1132770234341605478013C012C1CD90D042D0CD9
S1132780A024E4052C431C4384620D0CD0242406AD
S11327902C431C438462D478002C22D15B031CD5C7
S11327A09378012B1ED0416117E00023D7E7C024A2
S11327B0E4022343DDE70D4C2340DFE741600C04D2
S11327C0240CA023DB05234383620C0CD0231B06BB
S11327D023438362D378002B03D15378013B012B2D
S11327E002D930BD8161F8E78160FAE7FFFFFBFFA2
S11327F010B50A00C1090023002904D14309DB01F3
S113280005498C4663441F2420400121814018005F
S1132810024B984710BDC0460044004149270000C0
S11328207047000010B5054B9847054B9847054B7A
S11328309847054B9847054B984710BD7D230000EA
S11328407520000021280000212800002128000014
S1132850931C9B001950022A09D0032A0CD001238F
S113286093401A00037E1343037600207047037ECF
S1132870102213430376F8E7037E202213430376E2
S1132880F3E7000070B58000164BC45823689D7BA5
S1132890227E637E13401D40EB0706D4AB070BD4A6
S11328A0EB0610D4AB0615D470BD2000A36898477E
S11328B0012322689373F1E72000E3689847022319
S11328C022689373ECE72000236998471023226859
S11328D09373E7E7200063699847236820229A737B
S11328E0E2E7C0462403002010B50020014B9847BE
S11328F010BDC0468528000010B50120014B984743
S113290010BDC0468528000010B50220014B984731
S113291010BDC0468528000010B50320014B984720
S113292010BDC0468528000010B50420014B98470F
S113293010BDC0468528000030B587B001A90C4BF6
S11329400A0032CB32C212CB12C2019B98420BD086
S1132950012301A99A005258824206D00133052B63
S1132960F8D1002007B030BD0023D8B2FAE7C04642
S113297044520000F0B589B004000D0016000800B0
S1132980854B9847070006AB1B221A7001325A7018
S11329909A700132DA701A7103AA804B143303CB94
S11329A003C21B8813800023A360E3602361636177
S11329B023766376BA007A4BD4502560B378082B1B
S11329C006D023712B880520DB0705D509B0F0BD9F
S11329D01720FA07FAD5F4E7EB7B1730DB06F5D4BA
S11329E02B889B07F2D4337C002B79D1337F002BC7
S11329F000D081E06B49086A7A0003ABD35A0343E1
S1132A000B62B378082B00D186E001A933780B70F0
S1132A1006ABDF5D3800644B98473800634B98473A
S1132A203189B3880B43B178B27911431943737870
S1132A30002B02D080231B0119432268D37B5BB295
S1132A40002BFBDB2980717B4B1E99418900B37BF2
S1132A50002B01D0012319432268D37B5BB2002BE6
S1132A60FBDBFF232B71002905D02268D37B5BB2EB
S1132A70002BFBDB6971B17AF37A002B01D01023B0
S1132A801943337B002B01D0202319432268D37BC5
S1132A905BB2002BFBDBA9712268D37B5BB2002BFA
S1132AA0FBDB2379042B3FD0082B5ED01720002BAF
S1132AB000D08BE7D37B5BB2002BFBDB338D2B8207
S1132AC02268D37B5BB2002BFBDB738D2B832268E4
S1132AD0D37B5BB2002BFBDBB38D6B83002075E7EC
S1132AE002A901238B700022CA70327E0A704B70D7
S1132AF0307D2F4B984779E702A901238B70002280
S1132B00CA702432B21812780A704B701F33F3184B
S1132B101878274B98476DE7086A7A1C520003AB74
S1132B20D35A03430B6270E7D37B5BB2002BFBDB0E
S1132B302823F35C2B742268D37B5BB2002BFBDB72
S1132B402923F35C2B752268D37B5BB2002BFBDB60
S1132B502A23F35C2B762268D37B5BB2002BFBDB4E
S1132B602B23F35C6B76002030E7D37B5BB2002B26
S1132B70FBDBB36A2B612268D37B5BB2002BFBDBEC
S1132B80F36AAB612268D37B5BB2002BFBDB336B54
S1132B90EB6100201AE7C0463929000044520000C6
S1132BA02403002000040040F92600006D260000E4
S1132BB0F1270000FEE70000F8B52A4A2A4B9A42A2
S1132BC011D01A00294B9A420DD2294A03339B1A79
S1132BD09B0801339B000022234822498C588450CF
S1132BE004329A42FAD1234A234B9A420AD2D3435B
S1132BF021495B1803218B4304339B18002102C233
S1132C009342FCD11D4AFF211D4B8B439360FD3938
S1132C1090235B001B4AD1501B4AD3780325AB4356
S1132C2002242343D370D3780C27BB4308263343B1
S1132C30D370164B987B3022904320221043987314
S1132C40997BB943314399739A7BAA4322439A737C
S1132C500F4A536880210B4353600E4B98470E4B29
S1132C609847FEE75C530000000000206800002045
S1132C7004000020680000204803002000ED00E06C
S1132C800000000000700041005000410048004175
S1132C90004000414D490000412E00000300064A57
S1132CA01268002A04D0044A1068C31813607047DD
S1132CB00249014A1160F6E7B001002048230020D0
S1132CC000B589B00B4B1B68002B01D109B000BDC6
S1132CD0094B98470028F9D16846084B98471E21AC
S1132CE06846074B98470028F0D1024A1368013B15
S1132CF01360EBE73803002081090000FD0D00009C
S1132D008D090000F0B5D64600B505000F00CA785D
S1132D102349244EB0470300C4B2FF2018402818AA
S1132D2002222149214B9A4698470134E4B23A7968
S1132D3028191B49B0472418E4B2281902221A4959
S1132D40D0470134E4B27A7928191549B0472418D8
S1132D50E4B2281902221649D0470134E4B23A7881
S1132D6028190F49B0472418E4B2281902220E4941
S1132D70D0470134E4B27A7828190949B0472418B5
S1132D80E4B2281902220849D0470134E4B2BA78DF
S1132D9028190849B0472018C0B204BC9246F0BDB7
S1132DA074520000A94900007852000095490000BF
S1132DB07C5200008052000030B58BB005000C003E
S1132DC08022D205154BDA611548164B9847002C22
S1132DD001D00BB030BD00232A0013496846134CC0
S1132DE0A0470300C4B2FF20184068440C49104BAC
S1132DF098472418E4B2272CEBD8210068460D4BE1
S1132E0098470028E5D0023CE1B268460A4B98474F
S1132E100A4A136801331360DBE7C046804400416B
S1132E203C0300204108000064520000A94900004E
S1132E30052D00008D090000A50D000038030020B9
S1132E4070B51E4B98471E4B98471E4B9847012060
S1132E501D4B98471D4B98471D4B98471D4B984752
S1132E601D4B984700234022FF21E12040021B4CC8
S1132E70A0471B481B4B98471B4B98471B4B984735
S1132E800A2200211A481B4CA0471B4A0A211B484E
S1132E90A0471B4B984701221A4B1A70BFF35F8F50
S1132EA062B68022D205184BDA610022174B1A60F1
S1132EB0174D184CA847A047FCE7C046252800003A
S1132EC0450A00009D0B0000050C0000D10E000017
S1132ED0A10A0000ED080000890E00006111000045
S1132EE0B92D0000910B0000E50900000911000054
S1132EF0290C00005510000088130000C12C0000AC
S1132F002511000000000020804400413803002007
S1132F10CD100000A9120000002243088B4274D394
S1132F2003098B425FD3030A8B4244D3030B8B42C6
S1132F3028D3030C8B420DD3FF22090212BA030CCF
S1132F408B4202D31212090265D0030B8B4219D3B0
S1132F5000E0090AC30B8B4201D3CB03C01A5241D0
S1132F60830B8B4201D38B03C01A5241430B8B4218
S1132F7001D34B03C01A5241030B8B4201D30B0301
S1132F80C01A5241C30A8B4201D3CB02C01A524128
S1132F90830A8B4201D38B02C01A5241430A8B42EB
S1132FA001D34B02C01A5241030A8B4201D30B02D4
S1132FB0C01A5241CDD2C3098B4201D3CB01C01AEE
S1132FC0524183098B4201D38B01C01A52414309F8
S1132FD08B4201D34B01C01A524103098B4201D3E6
S1132FE00B01C01A5241C3088B4201D3CB00C01A53
S1132FF0524183088B4201D38B00C01A52414308CB
S11330008B4201D34B00C01A5241411A00D20146EF
S1133010524110467047FFE701B5002000F006F862
S113302002BDC0460029F7D076E770477047C04616
S1133030F0B5CE46474615042D0C2E0080B5070486
S1133040140C3F0C9946030C7E435D436743634372
S11330507F19340CE4199C46A54203D980235B02F2
S11330609846C4444B46514343433604360C250C1E
S113307024046544A4195918491920000CBC90462D
S11330809946F0BDF8B54546DE4657464E460C0314
S1133090E0B54E00C90F88460D00610A440F0C4389
S11330A0C70019035800DB0F9B464B0A510F0B4313
S11330B0760D400D1900D200D84500D1AEE0351A86
S11330C0002D00DCF6E000280FD1134300D1DBE033
S11330D06B1E002B00D037E1BA1A9742BF41641A25
S11330E07F42E41B0126170024E0C64B9E424DD0CC
S11330F080231B041943382D00DD07E11F2D00DD5B
S113310038E12020431B9A460B00504683409946E1
S113311013004846EB401843030050468240501EBB
S11331208241E9401A43BA1A611A9742A44117002E
S113313064420C1B230262D56402650A002D00D18F
S1133140DFE0280001F0E4FB0300083B1F2B00DD57
S1133150D2E020223C00D21A9D40D4409F40254317
S11331609E4200DDC4E09E1B731C1F2B00DDF1E0BA
S1133170202238002900D21AD840914097402C00D0
S11331800143781E8741DC4000260F437B0709D0AA
S11331900F233B40042B05D03B1DBB42BF417F4264
S11331A0E4191F0023022CD5964B01369E4200D110
S11331B09AE04546944BFF081C406007760564027C
S11331C00743240B760D00212403230B0C0D8F4A97
S11331D024051C431440330523435B00ED075B08BF
S11331E02B43380019003CBC90469946A246AB4696
S11331F0F8BD6446044300D111E2040067467B072E
S1133200C6D145466007FF080743E4087D4B9E424C
S113321030D024037605240B760DD4E7331A9A466E
S1133220002B78DD002831D076488642AED080204D
S1133230000401435346382B00DCE9E00A43511EE5
S11332408A410021D219BA42BF4109197C421700B0
S11332500C192302D3D56B4B01369E4200D13AE1BF
S11332600120694B1C407B0807401F43E0070743CC
S113327064088BE723003B4300D1CBE18022120397
S113328014432403240B9EE72E007FE70800104319
S113329000D1B4E0581E002800D0DEE0BA18BA42CB
S11332A09B4164185B42E418170001262302A6D54B
S11332B00226D5E7002D6ED1701C4005400D012873
S11332C000DCF9E0B81A844687428041E51A40429E
S11332D02D1A280200D489E0D71BBA4292411C1B44
S11332E05242A51AD84629E74546002400276AE732
S11332F0454CF61A2C4049E73D0028388540002704
S11333002EE7380001F004FB20301DE70A43511E6C
S11333108A41002107E7002B00D0F3E0701C43052D
S11333205B0D012B00DCADE0364B984200D1D1E0BF
S1133330BA18BA42BF4164187F42E419E707520839
S113334017436408060021E72E48854200D193E024
S11333501D00D0E629001F3EF140202B00D18DE056
S11333604022D31A9D402F437D1EAF4100240F43BA
S1133370002644E72B000800203BD8400300202D02
S113338000D17DE04020451BA9400A43511E8A41DB
S113339000211A43C7E6002E50D01A4EB04257D02F
S11333A080266B429946360434434B46382B00DD65
S11333B0D6E01F2B00DD35E12026F51A2600AE40AD
S11333C0B2463E00DE40AC46350056462E436546C6
S11333D0AF407D1EAF41DC403743D71BBA42924118
S11333E00C1B5242A41A0600D846A3E6644667465C
S11333F02C4300D0A2E600250026002706E71E0085
S1133400C4E6C046FF070000FFFF7FFFFFFF0F80F9
S11334101F2B63DC2020C31A080098409C46834677
S113342053461000D84003005846184363469A4058
S1133430531E9A4153460243D94003E726003E43B4
S113344006D0EB439946002BC7D0944EB042ACD182
S11334500C0017000600D84698E6904B9A450BD00E
S11334608246E7E6002800D09EE01800104300D111
S1133470E9E01C001700D846884E87E6002572E76D
S1133480002182E723003B43002E00D0ABE0002B59
S113349000D1E7E00B00134300D177E6BA18BA4233
S11334A0BF4164187F42E419230200D4F2E07C4B4C
S11334B017001C40060069E620003843002ED1D1D5
S11334C000285BD11C00144300D1A8E01C001700A5
S11334D0D8465BE606000024002797E650460B001A
S11334E02038C34099465346202B00D195E0402311
S11334F050461B1A99400A43511E8A414B460021EB
S11335001A439FE6002E30D126003E4367D0DB43AA
S11335109A46002B1CD0614EB04260D05346382BE3
S113352000DD96E01F2B00DD9FE02026F31A260025
S11335309E409C46B34653463E00DE4033005E4602
S11335401E4363469F407B1E9F415346DC403743E6
S1133550BF189742924164185242A418060078E6B4
S113356027437C1EA741002437E74C4EB04236D097
S113357080265B4236049A463443CFE71800104352
S113358000D103E6B81A84466745AD41E01A6D429E
S1133590401B050200D42CE6D71BBA4292411C1BE7
S11335A05242A41AD846F1E51800104300D163E74B
S11335B0F808670707438020E4080003044208D0A2
S11335C0DD08054205D1D208590711430F002C002C
S11335D0D8467B0FE4001C43FF00304ED6E50C00B8
S11335E017000600D2E5002B38D00B00134300D19E
S11335F042E7F808670707438020E4080003044211
S1133600E7D0CB080342E4D1D208490711430F00A5
S11336101C00DEE700270024D5E500216BE7002528
S11336200027F3E54E462500203EF5404B462E008C
S1133630202B2DD04025ED1AAC4027437C1EA741FA
S113364000243743C9E6802400252403134E0027B1
S1133650DCE527437C1EA741002479E70C00170012
S11336600E4E93E50C00170090E556462300203ECD
S1133670F34099465346202B0ED0402356469B1BBD
S11336809C4027437C1EA7414B4600241F435FE711
S11336900024D2E71700B2E50024F2E7FF07000098
S11336A0FFFF7FFFF0B557464546DE464E46E0B580
S11336B04C000E0387B0834692461D008046360BAD
S11336C0640DCF0F002C4FD06F4B9C4235D080231C
S11336D0420F1B04F600134333439946C300984634
S11336E06A4B00269C460023644403932B031B0B64
S11336F09B466B00ED0F50465B0D01955ED0624A10
S1133700934253D05A46D1008022400F1204024300
S11337100A4393465246D1005C4A944600226344CD
S11337203800684084460290E41A16430F2E00D9EC
S1133730B4E0574BB6009B599F4603003343994668
S11337406CD100239846023308260393CEE7CB4678
S11337504146039A0197022A65D1019B4A4C9C4633
S11337600023002298466BE00300334399464ED071
S1133770002E00D1BCE1300001F0CAF803000B3B7D
S11337801C2B00DDACE11D22D31A5A460100DA409D
S113379008398E401300334399465B468B40984664
S11337A000233C4C0026241A03939FE751465A46B3
S11337B0114329D1002293460232B1E7594601430D
S11337C01ED05B46002B00D19EE1584601F0A0F8C4
S11337D003000B3B1C2B00DD8FE102005946083A25
S11337E091408B461D21CB1A5146D9400B005946B6
S11337F00B4351469B469140264B00221B1A8FE7F0
S1133800002301229B468BE75146032288E70023CD
S11338109846013304260024039367E70323B14643
S113382003930C2662E7032A00D15CE2019B012A80
S113383000D0E4E113409C46002300240022984673
S113384000211203130B0A0D12051A432305124C0F
S113385040462240134362465B00D2075B08134391
S1133860190007B03CBC90469946A246AB46F0BD51
S1133870002380229C4612039846034CE0E7002371
S1133880014C00229846DBE7FF07000001FCFFFF24
S1133890885200000DFCFFFFFFFF0F80D94500D9BF
S11338A039E100D134E1002346464D469A46013CB5
S11338B05B460A0E1B021A430B02170C03931304F4
S11338C01B0C3900280090460193FFF725FB0200EA
S11338D0019B83465A43280039009146FFF7A2FB17
S11338E0350C09040D43A9450DD95B464544013BFC
S11338F0A84500D93AE1A94500D837E102235B4243
S11339009C464544E3444B46EB1A390018000493A3
S1133910FFF702FB019B05004343390004989946D5
S1133920FFF780FB330409041B0C0B43994509D9A9
S113393043446A1E984500D91AE1994500D817E115
S1133940023D43444A469B1A5A4612042A430399A9
S11339509346100C0A0C914609045A46090C4E462B
S11339600D001204120C45430591514372437043F8
S113397052190E0CB218954203D980256D02AC463B
S11339806044150C09041204090C281852188342C7
S113399000D2CEE000D1C8E01D1A53469E1AB245AB
S11339A092415242AB1A9A46984500D117E1390028
S11339B01800FFF7B1FA019B050043433900504654
S11339C00493FFF72FFB04980B04310C194388422E
S11339D009D941446B1E884500D907E1884200D8C3
S11339E004E1023D4144049BCB1A180039000493BE
S11339F0FFF792FA019B82464343390004980193EE
S1133A00FFF710FB01980B043104090C1943884299
S1133A100DD953464144013B884500D9E8E088422A
S1133A2000D8E5E002235B429C464144E244019B0A
S1133A302D04CE1A51462943059D4F462A000B04F6
S1133A40080C1B0C5A4345437B4378435B19170C02
S1133A50FB189D4203D980256D02AC4660441D0CC1
S1133A6012041B04120C28189B18864200D293E0FF
S1133A7000D18EE001231943A04BE318002B00DC96
S1133A8099E04A0700D09EE05A46D20106D55A462C
S1133A909B4B1A4080239346DB00E318994A9342D8
S1133AA068DD0123029A984C1A40002394469846F4
S1133AB00022C5E680224B46120313420AD05B461D
S1133AC0134206D11A431203120BAC4688468E4C9D
S1133AD0B6E64B461A431203120BBC468A4CAFE6B9
S1133AE003005A46283B9A4000239146984657E6DD
S1133AF0584600F00DFF203040E603005246283BB4
S1133B009A400021934677E600F002FF20305FE6FA
S1133B10884500D2C7E64B46DE075D0843465B088E
S1133B201E434346DB079A46C2E60025924500D36E
S1133B3033E7039E5946B446E244B245AD416D4273
S1133B404544EB180139984507D2984200D97FE0E3
S1133B5000D1BCE01D1A8B461FE79845FAD1039D9E
S1133B605545F2D943468B461D1A16E79B46CAE6CD
S1133B701500E7E65A46C90852070A435B05904612
S1133B805C0D5A460123029952021940120B8C46CD
S1133B9056E6002B00D16FE746444A1EB04529D9AA
S1133BA01100864200D065E7039A934200D061E792
S1133BB062E7012149420120C21A382A21DD029B11
S1133BC003409C4638E60F220A40042A00D15BE7F2
S1133BD00A00111D914292415242934454E7474BCB
S1133BE0E318002BE5DD01225242F2E71D00FAE65C
S1133BF09A461CE7B04239D86ED011003AE70293D6
S1133C003AE71F2A3CDC20239B1A0C0058469940B3
S1133C1098404B1E99415B46D440D340204308430F
S1133C201A00430709D00F230340042B05D00100D9
S1133C30081D88429B415B42D21813023AD50123E6
S1133C40029A01241A400023944698460022F7E57C
S1133C50022149428C46039DE344AC46E244AA4512
S1133C60AD416D424544ED182D1A96E68A1E03991E
S1133C704D008D42894149424144761803958FE7AE
S1133C801F204042C31A5846D8400300202A28D097
S1133C9040205D46821A954029434A1E91411943AA
S1133CA0072300220B4009D00F2300220B400800F9
S1133CB0042BBDD1010053075202120BC90819434A
S1133CC0012388460299002419408C46B8E55245E0
S1133CD0BED88B46002560E6039D9D42C6D31100E5
S1133CE062E70025D8E780225B4612031A43019B52
S1133CF01203120B9C468846034CA1E5FF03000007
S1133D00FFFFFFFEFE070000FF070000F0B5574667
S1133D104546DE464E46E0B50C0398464E00230B5E
S1133D2087B0070092469B46760DCD0F002E6BD0D0
S1133D306D4B9E4235D080245B46420F2404DB0049
S1133D4014431C43C3009946684BA3469C46002376
S1133D5000276644029343461C035A00DB0F504677
S1133D60240B520D984600D176E05F4B9A426DD0F9
S1133D708023410F1B040B435C49E4008C461C4325
S1133D80C300002062444146B6186940721C019188
S1133D90944607430F2F00D9B0E0554ABF00D259CB
S1133DA097465B460343994600D087E000239B4631
S1133DB0023308270293CEE742460192022867D0D5
S1133DC0032800D10EE2012800D062E10023002480
S1133DD00022994601990140CDB2002112030B0D36
S1133DE0120B1B051343434A240513401C43640070
S1133DF0ED0764082C434846210007B03CBC9046BC
S1133E009946A246AB46F0BD034399464FD05B4664
S1133E10002B00D189E1584600F07AFD03000B3BEA
S1133E201C2B00DD7AE11D22D31A3A0001005C4606
S1133E30DA4008398C4013008F4023439B46B9462F
S1133E4000232D4E0027361A029384E7534623435A
S1133E502AD10024022096E75346234320D0002C85
S1133E6000D157E1200000F053FD03000B3B1C2B55
S1133E7000DD49E11D21CB1A51460200D9405346C9
S1133E80083A944093400C431B4A121A00207AE7E4
S1133E900125019B144C1D400023002299469CE7F8
S1133EA00024002201206EE7534603206BE7002321
S1133EB09B4601330427002602934CE703238146E3
S1133EC00C27029347E7802200230025120399461A
S1133ED0054C82E75C464B4602986FE75C464B46CE
S1133EE0019502986AE7C046FF07000001FCFFFF46
S1133EF0C8520000FFFF0F800DFCFFFF4A464946F1
S1133F00170C1A0C1B041B0C08041900000C414369
S1133F101500884619007D43794303958946290095
S1133F20150045434D44029545462D0CAA46029D75
S1133F305544A94506D98A46802149028946CA447E
S1133F4051460391290C0491414609042D04090C9E
S1133F5088462900250C24044144240C05912100A1
S1133F6041438846210079438A4668434146504488
S1133F708146080C48446F43824503D98021490295
S1133F8089464F44010C894639004944029141460F
S1133F900F0404993F0C88460004C019804441462C
S1133FA0049159460F0C0904090C884659438A4662
S1133FB039005143894641464A435146090C8B46D0
S1133FC07B43D2185A44934203D980235B029B4615
S1133FD0D94451460904090C8A46414661437C434D
S1133FE0130C12044B445244A1468A463C004146F9
S1133FF06C434D4351464D440F0C7D19A94503D9DB
S11340008021490288464444049F0399B8464144A8
S11340108B468345804141428846514608042F041B
S1134020000C3F1858460299101889469042924154
S11340304F44BA46524299469346C244D144CB4473
S11340408F42BF41C245894199459B419345924165
S11340507F4249422D0C52420F435B4213437F1966
S1134060FF185B463C19DB0D059A64021C434302AE
S113407013435D1EAB415A46C00D03435202134322
S1134080E20156D501205A0803401343E2071343C3
S113409064085A48604400284DDD5A0709D00F22AD
S11340A01A40042A05D01A1D9A429B415B42E41827
S11340B01300E20104D58020514AC000144060443A
S11340C0504A904200DDE3E60125DB0862071A430B
S11340D06402019B9146220B4405640D1D407CE65D
S11340E0802259461203114208D0144206D12243B9
S11340F01203120B45469946434C6EE65B461A433F
S11341001203120B404C68E603005446283B9C40C3
S11341100023B9E600F0FCFB2030A6E60300283BB0
S11341209F400023BB4699468AE600F0F1FB20300D
S113413074E6B446ADE701252A1A382A06DD019B48
S113414000241D4000230022994646E61F2A21DC54
S113415020252000AD1A1E00AB40A840D6405D1EAD
S1134160AB4130431843D440430709D00F230340E5
S1134170042B05D00300181D98429B415B42E418B0
S1134180230221D50125019B01241D400023002287
S1134190994622E61F2521006D42281AC1400800D5
S11341A0202A1DD05F35AA1A944023435C1EA341E4
S11341B0072503431D400022002D09D00F220024AF
S11341C01A401800042AD6D1030065076402220BA2
S11341D0DB082B4301259946019B00241D40FCE587
S11341E00024E2E7802201251203224301991203ED
S11341F0120B0D409946044CEFE5C046FF03000046
S1134200FFFFFFFEFE070000FF070000F0B5464673
S1134210D6464F460C03C0B5CD0F4E00610A440F7D
S11342200C43C1005800400D84468A460F00190310
S1134230500F490A0143C648760DA846DB0FD20049
S1134240844500D1D8E001204340AB4200D1A6E030
S11342506046351A002D00DC05E1002810D10B0062
S1134260134300D1D7E06B1E002B00D04BE1534623
S11342709F1ABA458041641A4042241A01261EE05E
S1134280B34B9E4248D080231B041943382D00DDD4
S113429019E11F2D00DD4CE120230F005B1B1000F2
S11342A09A409F40E840531E9A41E9400743174310
S11342B05346DF1B611ABA45A44164420C1B230216
S11342C000D4C5E06402650A002D00D1F6E02800A0
S11342D000F01EFB0300083B1F2B00DDE9E0202259
S11342E03C00D21A9D40D4409F4025439E4200DDAD
S11342F0DBE09E1B731C1F2B00DD0AE1202238002B
S1134300D21A290097402C009140D8407A1E974138
S1134310DC40002601430F437B0709D00F233B40B9
S1134320042B05D03B1DBB42BF417F42E4191F0053
S1134330230225D5864B01369E4200D1AFE0854B42
S113434001251C4043466207FF08640276051743B3
S1134350240B760D1D4000212403230B0C0D7E4AF3
S113436024051C431440330523435B00ED075B081D
S11343702B43380019001CBC90469946A246F0BD58
S1134380012543466207FF081743E4081D40704BAC
S11343909E4236D024037605240B760DDBE7634674
S11343A0F31A002B00DC94E06046002835D06848FE
S11343B08642B1D080273F043943382B00DCFDE02E
S11343C00A43170000217A1E9741574457458041FC
S11343D0091944420C1923023AD55D4B01369E4219
S11343E000D14BE101225B4B1C407B0817401F436B
S11343F0E207174364088FE70800104300D024E75E
S113440021E723003B4300D1B9E180221203144386
S11344102403240B9FE72E007EE70800104300D1FD
S1134420CAE0581E8446002800D0E7E052445245B2
S1134430804164184042241817000126230207D53E
S11344400226CFE764462C4300D1B3E12C00674633
S11344507B0700D062E76307FF081F43012543463B
S1134460E4081D4093E7002D78D1751C6D056D0D92
S1134470012D00DCF2E05046801A8245BF41651AE6
S11344807F42ED1B8446280200D48CE05046171A64
S1134490BA4292410C1B5542651B984614E701250C
S11344A0434600241D40002755E72A4CF61A2C40A9
S11344B032E73D0028388540002717E7380000F030
S11344C027FA203006E70A43170000217A1E974195
S11344D0EEE6002B00D0E5E0731C9C465B055B0D0B
S11344E0012B00DC9FE01A4B9C4500D1C5E05244EF
S11344F052458041641840422418E7075208174384
S11345006408664608E71248854200D185E01D002C
S1134510BCE629001F3EF140202B00D17FE0402261
S1134520D31A9D402F437D1EAF4100240F43002624
S11345308EE72B000F00203BDF40202D71D040235D
S11345405D1BA9400A43511E8A4100211743AFE66F
S1134550FF070000FFFF7FFFFFFF0F80002E3ED00C
S1134560B34EB44545D0802636046D423443382DCD
S113457000DDA8E01F2D00DD1FE1202627005046A6
S1134580761BB740E84007435046B040461EB04152
S1134590EC403843171ABA4292410C1B5242A41AF7
S11345A0664698468BE6644667462C4300D08BE605
S11345B0002500260027EAE61E00ADE61F2B60DC7E
S11345C02027F81A0F00844687401000D84007437C
S11345D060468240501E8241D9401743F5E62600CA
S11345E05046064305D0ED43002DD3D0904EB4453C
S11345F0BDD10C001700664698468DE68C48834270
S11346000BD06346D9E6002D00D096E00800104395
S113461000D1E2E00C0017009846854E7CE60025A8
S113462080E700218EE7230050460343002E00D08C
S1134630A8E0002B00D1DEE00B00134300D16BE6B1
S11346405244524580416418404224181700230202
S113465000D4FDE6774B66461C405DE625005046D7
S11346600543002ECFD1002D4FD10C00144300D1AF
S1134670A0E00C00170098464EE66646002400278A
S113468085E61F000800203FF8400700202B00D1DA
S11346908EE04020C31A99400A43511E8A410021EA
S11346A0174392E6002E14D126005046064362D0EA
S11346B0DB43002B5CD18718974292416418524225
S11346C0A418664687E650462043441EA0410024B1
S11346D060E7574EB4454ED0802636045B423443DF
S11346E0382B00DD7FE01F2B00DD8BE02026270028
S11346F05046F61AB740D84007435046B040461ECD
S1134700B0410743DC40BF18D6E70D00154300D184
S113471002E65046801A8245BF41651A7F42ED1B6E
S11347208446280200D48DE65046171ABA429241B4
S11347300C1B5242A41A9846EEE50D00154300D115
S11347406BE750466707C00807438020E40800036E
S1134750044207D0CD08054204D12C009846D7085E
S113476049070F437B0FE4001C43FF00304ED3E5A1
S11347702F4EB445B4D10C0017006646CCE5002793
S11347800024E8E5002B39D00B00134300D144E7A3
S1134790C008670707438020E40800030442E1D00F
S11347A0CB080342DED1D70849070F431C00D9E7E1
S11347B0002171E700250027E9E52E002700203EAF
S11347C0F740202D2FD04026751BAC405046204387
S11347D0441EA04100243843DCE680240025240341
S11347E0134E0027D3E5504620430700781E874127
S11347F00024BF1860E70C0017008DE50C001700BB
S11348000B4E89E51E002700203EF740202B0CD0DC
S11348104026F31A9C4050462043441EA0410743BF
S11348200024BF1848E70024D0E70024F3E7C0467B
S1134830FF070000FFFF7FFF30B5134D0A034B0055
S1134840120B5B0DC90F0024AB4210DD0F4CA342C9
S11348500FDC80240E4D64032243ED1A1F2D0BDD63
S11348600C48C31ADA405442002900D11400200035
S113487030BD094BCC18FAE7084CE840A446634421
S11348809A400243EFE7C046FE0300001D04000007
S11348903304000013040000FFFFFF7FEDFBFFFF64
S11348A010B5041E28D000F033F8154B154A1B1A16
S11348B0D21A1F2A15DD144AD21A94400022240366
S11348C05B05240B5B0D0021100024030A0D240B4F
S11348D0120522430D4C1B05224013435B0059086B
S11348E010BD210091400A000B21081AC4405B0549
S11348F02403240B5B0DE6E7002300240022E2E7F7
S11349001E0400003304000013040000FFFF0F80A6
S11349101C2101231B04984201D3000C10391B0AEB
S1134920984201D3000A08391B09984201D30009AF
S1134930043902A2105C40187047C0460403020206
S113494001010101000000000000000070B5002614
S11349500C4D0D4C641BA410A64209D1002600F096
S1134960EDFC0A4D0A4C641BA410A64205D170BD8F
S1134970B300EB5898470136EEE7B300EB5898477D
S11349800136F2E748530000485300004853000042
S11349904C530000002310B59A4200D110BDCC5CEA
S11349A0C4540133F8E700000EB410B59DB002A959
S11349B0029008610B4882248860486101204042CB
S11349C01FABC881084804CBA400006801938C8104
S11349D000F06EF80023029A13701DB010BC08BCDE
S11349E003B01847FFFFFF7F04000020F0B58E6876
S11349F085B007000C00039201939E4239D890239E
S1134A008A89DB001A4234D00325096923685B1ABA
S1134A100293636902985D43EB0F5D19019B6D106E
S1134A2001331B18AB4200D91D00530532D52900B0
S1134A30380000F031FB061E09D10C233B604023F3
S1134A400120A28940421343A38105B0F0BD029A1C
S1134A502169FFF79FFFA389144A1A408023134357
S1134A60A381029B2661F61826606561019EED1AFA
S1134A70A560019BB34200D21E0032000399206856
S1134A8000F0ADFAA36800209B1BA36023689E1965
S1134A902660DAE72A00380000F05CFB061EE0D14D
S1134AA02169380000F0AEFAC7E7C0467FFBFFFF7C
S1134AB0F0B59FB0029005938B890F0016001B067A
S1134AC011D50B69002B0ED1402100F0E5FA3860B6
S1134AD03861002805D10C23029A013813601FB0F5
S1134AE0F0BD40237B61002306AD6B6120336B7600
S1134AF01033AB7634002378002B47D1A31B0493E7
S1134B000DD0A31B320039000298FFF76FFF431C3E
S1134B1000D1B5E06A69049B944663446B612378D1
S1134B20002B00D1ACE00122002352426A6002A9AA
S1134B305432521801342B60EB60AB601370AB65D8
S1134B40584E05222178300000F03EFA621C0028FD
S1134B5020D12968CB0604D5532302AE20309B19FB
S1134B6018700B0704D553232B2002AE9B19187021
S1134B7023782A2B16D000200A21099B2278303A68
S1134B80092A55D9002815D0099313E0252BB5D04F
S1134B900134B0E70123801B8340296814000B43D0
S1134BA02B60CDE7059B181D1B680590002B39DB96
S1134BB00993140023782E2B0BD16378621C2A2BC3
S1134BC03ED1059B02341A1D1B680592002B34DB71
S1134BD00793354E21780322300000F0F5F90028C0
S1134BE006D04023801B83402A68013413432B6082
S1134BF0217806222D48661C297600F0E5F9002864
S1134C0046D02B4B002B2FD12968059B0722C905C1
S1134C1028D59B189343083305936B69039A9B1813
S1134C206B6167E75B42EB6002230B432B60C0E7D9
S1134C304B4301349B180120A0E701235B42C7E7E3
S1134C40002314000A201A006B60217830390929E6
S1134C5003D9002BBDD00792BBE74243013452185D
S1134C600123F2E70733D5E705AB00933A00114B74
S1134C702900029800E000BF0390039B0133CCD1CC
S1134C80BB890B985B0600D429E70120404226E744
S1134C9005AB00933A00074B2900029800F07AF81C
S1134CA0EAE7C046085300000E5300001253000008
S1134CB000000000ED490000F7B5150001938A6873
S1134CC00B6900900C00934200DA130022002B6061
S1134CD043321278002A01D001332B6023689B06EB
S1134CE002D52B6802332B60062723681F4027D088
S1134CF0230043331B785A1E93412268920630D412
S1134D002200019943320098089EB047431C25D0E5
S1134D10062320682A68E16803400025042B03D198
S1134D208D1AEB43DB171D40A3682269934201DD12
S1134D309B1AED180027BD4220D1002010E0013756
S1134D40E3682A689B1A9F42D2DA220001231932AF
S1134D5001990098089EB047431CF0D101204042BD
S1134D60FEBD3020E1184331087021005A1C453142
S1134D700978A218433202331170C1E722000123DB
S1134D801A3201990098089EB047431CE6D00137B7
S1134D90D1E70000F0B58BB006920A0043320793C6
S1134DA0059004920A7E0C00109B6E2A00D18FE0BD
S1134DB017D8632A2CD008D8002A00D199E0582AA1
S1134DC054D026004236327029E0642A01D0692A80
S1134DD0F7D121681A68080623D5111D19601568D2
S1134DE025E0732A00D188E008D86F2A29D0702AD8
S1134DF0E7D1202209680A43226003E0752A20D003
S1134E00782ADED122007821453211706C4A30E0D4
S1134E100E001A684236111D19601368337001239D
S1134E2079E04906D9D5111D19600023D55E002DFE
S1134E3003DA2D23049A6D421370624B0A270393FD
S1134E402FE020681968050603D5081D18600D6851
S1134E5005E04006F9D50D68081D1860ADB2594B40
S1134E60082703936F2A18D00A2716E045310A70E1
S1134E70544A03921A682168101D186015680806C0
S1134E8022D5CB0702D52023194321601027002DFA
S1134E9003D1202322689A43226023000022433353
S1134EA01A706368A360002B5CDB042221689143C1
S1134EB02160002D58D1049E002B64D02600039B52
S1134EC042361B7833705EE04806DAD5ADB2D8E7D7
S1134ED009681A68080605D5111D19601368626906
S1134EE01A6006E04906F7D5111D19601368A28AF5
S1134EF01A800023049E236154E01A68111D19606E
S1134F00166800216268300000F05EF8002801D0C5
S1134F10801B6060636823610023049A137041E07E
S1134F202369320006990598079DA847431C43D07E
S1134F30236800259B070FD4099BE06898423DDA5B
S1134F4018003BE022000123193206990598079EB8
S1134F50B047431C30D00135E368099A9B1A9D423F
S1134F60F0DBE9E7002DA9D0049E28003900FEF704
S1134F7059F8039B013E5B5C280033703900FDF750
S1134F80CBFF051EF1D1082F09D12368DB0706D515
S1134F9063682269934202DC3023013E3370049B30
S1134FA09B1B2361079B09AA00932100069B05987C
S1134FB0FFF782FE431CB3D1012040420BB0F0BD89
S1134FC02A53000019530000C9B28218904201D13B
S1134FD00020704703788B42FBD00130F6E710B510
S1134FE0884202D98B18984208D300239A4207D0EA
S1134FF0CC5CC4540133F9E78B5C8354013AFBD293
S113500010BD000070B50500002910D00C1F2368E6
S1135010002B00DAE418280000F0D4F81D4A1368C5
S1135020002B05D163601460280000F0CCF870BD3B
S1135030A34209D9216860188342F3D118685B68D8
S113504041182160EEE713005A68002A01D0A242F9
S1135050F9D919685818A0420BD1206809185818B2
S113506019608242E0D110685268411819605A6090
S1135070DAE7A04202D90C232B60D5E72168601837
S1135080824203D1106852684118216062605C60FA
S1135090CAE7C046B4010020032370B5CD1C9D436C
S11350A0083506000C2D1ED20C25A9421DD830004F
S11350B000F088F8254A14682100002919D1244CED
S11350C02368002B03D1300000F06AF82060290027
S11350D0300000F065F8431C2CD10C233000336001
S11350E000F071F803E0002DDFDA0C2333600020B8
S11350F070BD0B685B1B1AD40B2B03D90B60CC1847
S1135100256003E08C420ED163681360300000F028
S11351105AF8200007220B30231D9043C31AE7D00E
S11351205A42E250E4E74B6863600C00EEE70C007F
S11351304968C2E70323C41C9C43A042E0D0211A5F
S1135140300000F02DF8431CDAD1C6E7B40100208A
S1135150B8010020F8B507000D001600002905D19C
S11351601100FFF799FF04002000F8BD002A03D1C5
S1135170FFF748FF3400F7E700F026F82C008642DA
S1135180F2D931003800FFF787FF041EECD0290064
S11351903200FFF7FFFB29003800FFF733FFE3E796
S11351A0002370B5064C050008002360FDF776FD6A
S11351B0431C03D12368002B00D02B6070BDC04674
S11351C044030020704770470B1F1B68181F002BF7
S11351D001DA0B58C018704726271415121314153A
S11351E01600000000080042000C004200100042BB
S11351F00014004200180042001C0042E22000009B
S1135200DE200000DE2000004421000044210000D4
S1135210F6200000E8200000FC20000032210000FD
S113522000230000E0220000E02200006C230000C4
S1135230F22200000E230000E42200001C230000E0
S11352405C230000002C0042003000420034004285
S113525000380042003C00420008001000200040DA
S113526000800000496E707574202564203D20255F
S113527064200000256400002F0000003A000000B4
S11352802564200A0D0000009C3800007E380000D0
S113529038380000563700003838000070380000F5
S11352A038380000563700007E3800007E38000091
S11352B070380000563700004E3700004E370000AB
S11352C04E370000B43A0000FC3E0000BC3D000034
S11352D0BC3D0000B83D0000D43E0000D43E0000B8
S11352E0C63E0000B83D0000D43E0000C63E0000AB
S11352F0D43E0000B83D0000DC3E0000DC3E00006F
S1135300DC3E0000E0400000232D302B2000686CC0
S11353104C006566674546470030313233343536D4
S1135320373839414243444546003031323334350D
S1135330363738396162636465660000F8B5C04683
S1135340F8BC08BC9E467047DD000000F8B5C046B6
S10F5350F8BC08BC9E467047B500000085
S113535C0100000008000020000000000000000014
S113536C000000000000000000000000000000002D
S113537C000000000000000000000000000000001D
S113538C000000000000000000000000000000000D
S113539C00000000000000000000000000000000FD
S11353AC00000000000000000000000000000000ED
S10B53BC0000000000000000E5
S9032BB918
